:020000040000FA
:2000000024210100408138004001000034210000408100003C010000243D52FC3C01000120
:20002000243CC0003C04000024840A688C8800008C8900048C8A00088C8B000C340500019E
:2000400010A80006248400103405000210A8000B0000000008000025000000008145000039
:20006000A1250000256BFFFF254A00011D60FFFB252900010800000B00000000A120000022
:20008000256BFFFF1D60FFFD252900010800000B000000003C0400000C0000713C050000F9
:2000A000080001260040202500004148000041480000000000000050000900000000419848
:2000C000000041980000000000000050000A0100000000000000000000000000FFFFFFFFF0
:2000E0000006020000000000000000000000000000000000000000000000000000000000F8
:200100000000000000000000000000000000000000000000000000000000000000000000DF
:200120000000000000000000000000000000000000000000000000000000000000000000BF
:2001400000000000000000000000000000000000000000000000000000000000000000009F
:20016000000000000000000000000000000000004653535F77696E646F7730008C8200005E
:200180002442000490430000306300011460FFFD000000008C82000003E00008A045000739
:2001A0008C8200002442000490430000306300201060FFFD000000008C82000003E00008DC
:2001C0009042000727BDFFFCAFBF00000C00009D000000003C02FF0034450010A0A000004A
:2001E0003C0200000C000068244440D82403FFFF1043FFFB0000000090A2000024420001C2
:2002000008000078A0A2000027BDFFFCAFBF000000A0382510C00013000040253C0200004C
:20022000244940D880E200003403000A14430004000000003405000D0C00005F0120202524
:2002400080E2000001202025304500FF0C00005F24E70001250800010106502B1540FFF1F6
:2002600000000000010010258FBF000003E0000827BD000427BDFFE8AFBF0010AFB000146B
:200280003C02000024424128AFA2000034070020AFA700043C02023234428000AFA200088A
:2002A00034029600AFA2000C3C020000244440D83C05FF003C0200000C0000BB244641085F
:2002C0003C02000024504010260400140C0001800000282502002025000028258FB000141D
:2002E0008FBF00100800018027BD001827BDFFD8AFBF0000AFB00004AFB10008AFB2000CBA
:20030000AFB30010AFB40014AFB50018AFB6001CAFB70020AFBE00240080802500A088256E
:2003200000C0902500E098258FB400288FB5002C8FB600308FB70034000016C00017214291
:200340000082202500172EC002C03825000030250C00021E0000F02534020007128000024B
:20036000A2220003341E0006124000020000000037DE0050A23E000534020002A222000ABA
:200380003404000EA2240009A2220008340200FFA222000600031402A22200000003120289
:2003A000A2220001A223000234020020A222000B92220004304200201040000600000000EC
:2003C0009222000792220004304200201440FFFC00000000AE110000AE120004AE1300087D
:2003E000AE00000CAE000010AE140014AE150018AE00001CAE000020AE160024AE17002867
:20040000AE00002C9223000300001025306300F9A22300038FBE00248FB700208FB6001C89
:200420008FB500188FB400148FB300108FB2000C8FB100088FB000048FBF000003E00008A6
:2004400027BD0028080001110000000003E000080000000003E000080000000000801025EB
:20046000808300001460FFFE248400010082102303E000082442FFFF0080102580A3000083
:2004800024A50001A04300001460FFFC2442000103E000080080102527BDFFF8AFBF0000F0
:2004A000AFB000040C000113008080250C00013200000000020020258FB000048FBF00007D
:2004C0000800011127BD000827BDFFF4AFBF0000AFB00004AFB100083C0200002450401004
:2004E0003411000A9602001010400003000000000C000146020020252631FFFF1E20FFF98D
:20050000261000148FB100088FB000048FBF000003E0000827BD000C27BDFFF0AFBF00009C
:20052000AFB00004AFB1000800808025020020250C000252AFB2000C004088259602001022
:200540003042001010400003261200100C0001138E0400040C00016292040012044100026A
:20056000000000002411FFFFA6400000022010258FB2000C8FB100088FB000048FBF0000E5
:2005800003E0000827BD001027BDFFF4AFBF0000AFB000040080802534050001020020252E
:2005A0000C0001F2AFB100083C020000245141EC3402000CAE22000034020002AE220004D6
:2005C000AE3000080C000115263000088222000704410004000000008E0300003C040000F0
:2005E000AC8342F800021600000216038FB100088FB000048FBF000003E0000827BD000CAB
:2006000027BDFFECAFBF0000AFB00004AFB10008AFB2000CAFB30010008080259492001098
:2006200000A088253242001010400003249300100C0001138E0400043242FFE3AE11000400
:20064000AE110000122000032603000C0800019734040200344200042404FFFFAC640000E7
:20066000A66200008FB300108FB2000C8FB100088FB000048FBF000003E0000827BD001417
:2006800027BDFFECAFBF0000AFB00004AFB10008AFB2000C0080802500A0882500C09025FE
:2006A00002002025000028250C0001F2AFB300103C020000245341EC34020014AE620000F9
:2006C000340200093C030000AC6241F0AE700008AE71000C3C020000AC5241FC0C00011571
:2006E000267000088E62000C04410004000000008E0300003C040000AC8342F88FB300108B
:200700008FB2000C8FB100088FB000048FBF000003E0000827BD001427BDFFF0AFBF00008F
:20072000AFB00004AFB10008AFB2000C0080902500A080250C00011702402025284300FFF2
:200740001460000600000000340200163C030000AC6242F8080001EA2402FFFF3C030000F6
:20076000247141EC2442000DAE22000034020001AE220004AE3000082624000C024028259E
:200780000C00011E263000080C000115000000008222000704410004000000008E03000029
:2007A0003C040000AC8342F800021600000216038FB2000C8FB100088FB000048FBF000037
:2007C00003E0000827BD001027BDFFF8AFBF000010A0000AAFB000042882000310400007D0
:2007E000000000003C020000244241E800441021340300010800021AA04300003C0200003A
:20080000245041E882020000144000070000000034020001A20200003C020000244401706A
:200820000C0001C60000282582020001144000060000000034050001A20500013C02000099
:200840000C0001C62444017082020002144000060000000034050001A20500023C020000EB
:200860000C0001C6244401708FB000048FBF000003E0000827BD00083408000100004825BA
:20088000008050250000102500001825080002300100582500E760210187382B00C63021CF
:2008A00000C7302101803825010860210188402B012948210128482101804025256B000128
:2008C00014C4000200C4602B00E5602B398C000115800006000000002D6C004111800003B0
:2008E0000000000004C1FFEB00000000154600020146202B00A7202B1480000700000000CD
:2009000000A7202B00A72823014650230144502300491025006818250007204200063FC0F0
:2009200000E438250006304200082042000947C001044025256BFFFF1D60FFEC0009484291
:2009400003E000080000000027BDFFE0AFBF0000AFB00004AFB10008AFB2000CAFB30010D1
:20096000AFB40014AFB50018AFB6001C0080802500008825948200100000902530420004E0
:2009800014400018249300108E1400048E0200080441000326150008080002762452000164
:2009A0008E0200000054B0231AC0000B0000000092040012028028250C00008202C030257F
:2009C0001056000500000000966200002411FFFF34420040A6620000AE1400000800027F78
:2009E000AEA000008E02000C2404FFFF104400032603000C00809025AC6400001240000CB8
:200A00000000000092040012340600010C0001A0024028252403FFFF144300050000000036
:200A2000966200000060882534420040A6620000022010258FB6001C8FB500188FB4001488
:200A40008FB300108FB2000C8FB100088FB000048FBF000003E0000827BD0020FF00001020
:200A600002FAF08000000014000000010000400000000A60000000080000000100004008FA
:200A800000000A5C00000004000000020000400C0000000000000004000000010000401049
:200AA000000000A8000000C800000002000040D8000000000000011300000002000041EC69
:180AC0000000000000000110000000000000000000000000000000000D
:0400000500000000F7
:00000001FF
