:020000040000FA
:2000000002000375D000759F0075811C1202F7E4FFFE1200BF1200193280FED2B2ED24FF44
:2000200022C2B2E5A0248122120042A6907A0122E925E024FE2414F822E590FD7C00A8902F
:20004000E822EDAA907B002BFDEC3AFC22C2B0C2B1120021F508D2B0C2B1120021F509C28B
:20006000B0D2B1120021F50AD2B0D2B1120021F50B22EF14600A14601614602214602E2270
:200080008B80C2B0C2B1000012001B92B4802B8B80D2B0C2B1000012001B92B5801C8B8037
:2000A000C2B0D2B1000012001B92B6800D8B80D2B0D2B1000012001B92B70000C2B22275B8
:2000C0001300751200751100751000750F00750E00750D00750C00E4F51BF51AE4F519F587
:2000E00018E4F517F516E4F515F514C2B27F037D007BC81200727F047D017B1E1200727529
:200100000832750932750A32750B32851BA080EFBC0005BD0002D322C0F075F000EE30E754
:200120000C05F0EFF42401FFEEF43400FEEC30E710E5F02402F5F0EDF42401FDECF4340099
:20014000FC120169E5F0601E30E00AEDF42401FDECF43400FCE5F0B40302800AEFF4240187
:20016000FFEEF43400FED0F022BC0014BD0002D322BE004FC5F08DF0CF84CFADF0C5F02231
:20018000BE0008EFFDEEFCE4FFFE22C3EF9DEE9C40F1C0F0E8C0E0E9C0E0E4F97801C3EFED
:2001A00033FFEE33FEE933F9EE9DF5F0E99CB35003F9AEF0E833F850E5E9FCEEFDE8FF7ECA
:2001C000008033C0F0E8C0E0E9C0E07809EFF97F008DF0ACF0EE84FEE5F0C35006CF33CF7B
:2001E0009C80089C50012CCFB333CFC925E0C9FD35E0D8E77C00D0E0F9D0E0F8D0F0C32264
:200200008F017A00E914600F14603E14606414700302029B0202C4C2B0C2B1C2B21200394C
:20022000650C600585900C7A01D2B0C2B1C2B2E590B50D02800302023FEA70030202C812A9
:20024000004285900D7A01807FC2B0D2B1C2B2120039650E600585900E7A01D2B0D2B1C2CF
:20026000B2780F8603E590B50303EA605B1200288056C2B0C2B1D2B21200396510600585C4
:2002800090107A01D2B0C2B1D2B278118603E590B50303EA6032120028802DC2B0D2B1D25E
:2002A000B2120039651260058590127A01D2B0D2B1D2B278138603E590B50303EA60091291
:2002C000002880047D017C00BA01227E317FD2120110EE30E703E4FFFEEE6480247F5004C6
:2002E000E47FFFFE120030A60608A6072212003086060886072222900420E49360F8FFA30D
:20030000E493A3FEE493A3F8E493A3F9E493A3FAE493A3FBE493A3FCE493FDA3EE54017097
:2003200046EF64016033EF6403602EBF09028029BF0407AE83AF820203DDBF06028021AE15
:2003400083AF8288838982E4F0A31DBDFF011CEC4D70F48E838F8280A1E4F709DDFB809AB0
:20036000E4F309DDFB8093EF64016045EF64036040BF0902803BBF040AAE83AF828A838B77
:2003800082805ABF0602803FAE83AF828A838B82E493A3AA83AB8288838982F0A3A883A90E
:2003A000821DBDFF011CEC4D70E28E838F820202FAAE83AF828A838B82E493F709A3DDF9AE
:2003C0008E838F820202FAAE83AF828A838B82E493F309A3DDF98E838F820202FAE975F027
:2003E00008842420F8E6FCE5F06005CC03DCFDCCBD0014E954076006EC03FC0980F5ECF6DF
:200400008E838F820202FAEB4A6003E493A3C36001D3EC13FC091DE9540770D4ECF680BD4B
:09042000010200080000001400B4
:0400000500000003F4
:00000001FF
