:020000040000FA
:2000000002000375D000759F00758F10758131120313E4FFFE12003312001D320080FE1208
:2000200002107D0022E8248125E0F8228F057F060202101201AE12043C80FB747FC3982535
:20004000E0F8228F993099FDC299223098FDA899C298E822E80303543FF8540122890788C9
:20006000067C007D6402027B7F07120210AD0B7F08020210C0F0ED8FF0A4CFC5F0CCA42CC1
:20008000CE8DF0A42EFED0F022A2A0E433F51FA2A1E433F520A2A2E433F521A2A3E433F5C5
:2000A00022228F018E00800F89828883E493FF12004309B900010889828883E49370E9229B
:2000C0008F2D8D2E8B2F8E307F00120043E50A540FC454F0F82508FF120043AF2D12004359
:2000E000AF2E120043AF2F120043AF300200438D2A8C298F2CEEF52B20E728452C6024E539
:200100002C6002052BD293AF2AAE29120161C293AF2AAE29120161152CE52C70E8152BE550
:200120002B70E222C28E53890F438920438780D29ED29CEF601114601314601514601C14BD
:2001400060141460168017758DDD8012758DEE800D758DF78008758DFD8003758DFBD28EBC
:20016000228F018E0012005D8F058E047E007F641200748F038E0212005DA903EAF820E79D
:2001800014496011E96001087A6F7B0500DAFDDBFBD9F5D8F37E047F6F120074EF4E600DF0
:2001A000A907A806E960010800D9FDD8FB22C2B1C2B0C293C290C291C292C2B27F05120186
:2001C00024120089E51FC40354F8F8E520232354FCF9E52125E0FA25222928F5087D007F27
:2001E0000112001F7F0212001F7F0312001F7F0412001F7F05120210750A00750B00750D8B
:2002000000750E007D00120068750C0175120022EF14601614602014602A14603414603E34
:2002200014604114604414604522C294C2958D80D2970000C29722D294C2958D80D29700A5
:2002400000C29722C294D2958D80D2970000C29722D294D2958D80D2970000C29722C29461
:20026000C295800ED294C2958008C2948002D294D2958D80D2960000C29622BC0014BD0033
:2002800002D322BE004FC5F08DF0CF84CFADF0C5F022BE0008EFFDEEFCE4FFFE22C3EF9DA4
:2002A000EE9C40F1C0F0E8C0E0E9C0E0E4F97801C3EF33FFEE33FEE933F9EE9DF5F0E99C5F
:2002C000B35003F9AEF0E833F850E5E9FCEEFDE8FF7E008033C0F0E8C0E0E9C0E07809EF20
:2002E000F97F008DF0ACF0EE84FEE5F0C35006CF33CF9C80089C50012CCFB333CFC925E0AF
:20030000C9FD35E0D8E77C00D0E0F9D0E0F8D0F0C322229005CCE49360F8FFA3E493A3FEC5
:20032000E493A3F8E493A3F9E493A3FAE493A3FBE493A3FCE493FDA3EE54017046EF6401F5
:200340006033EF6403602EBF09028029BF0407AE83AF820203F9BF06028021AE83AF828837
:20036000838982E4F0A31DBDFF011CEC4D70F48E838F8280A1E4F709DDFB809AE4F309DD0F
:20038000FB8093EF64016045EF64036040BF0902803BBF040AAE83AF828A838B82805ABFF9
:2003A0000602803FAE83AF828A838B82E493A3AA83AB8288838982F0A3A883A9821DBDFFAE
:2003C000011CEC4D70E28E838F82020316AE83AF828A838B82E493F709A3DDF98E838F82AA
:2003E000020316AE83AF828A838B82E493F309A3DDF98E838F82020316E975F0088424201F
:20040000F8E6FCE5F06005CC03DCFDCCBD0014E954076006EC03FC0980F5ECF68E838F826C
:20042000020316EB4A6003E493A3C36001D3EC13FC091DE9540770D4ECF680BD803C120062
:200440004BF87009752801752700020558E528144527702E88037A00EB540FFBE4FAE50803
:20046000FD3395E0FCEBB50511EAB5040DD290E8C4540F540FF50A020550E4F528F527022C
:200480000558E528B4021EE527701AE830E70B120025881375170002055012003B8813756C
:2004A0001701020550E528B4031EE527701AE830E70B120025881475180002055012003B47
:2004C0008814751801020550E528B4041CE5277018E830E70A1200258815751900807112B8
:2004E000003B88157519018067E528B4051CE5277018E830E70A1200258816751A008050FB
:2005000012003B8816751A018046E528B4061FE527701BE85403F50C120054F50EE8C313B6
:20052000F85401F50DE8C313540FF50B8022E528B40725E5277021E85401F512120054F580
:2005400011E8C313F85401F510E8C313540FF50F0528E52870020527E52824F8E527648064
:20056000347F400302043EAD137F01120210E51724FF92B4AD147F02120210E51824FF9260
:20058000B5AD157F03120210E51924FF92B6AD167F04120210E51A24FF92B7E50FC454F004
:2005A000F50FAD0F7F05120210AF0C12002CAD0A120068C2B0E50E24FF92B1E5127800541B
:1D05C00001FBE4FA4B24FF9293C2902201010008001C0001010200090000001E00EC
:0400000500000003F4
:00000001FF
